{
  "contractName": "MyNFTs",
  "abi": [
    {
      "inputs": [],
      "stateMutability": "nonpayable",
      "type": "constructor"
    },
    {
      "anonymous": false,
      "inputs": [
        {
          "indexed": true,
          "internalType": "address",
          "name": "owner",
          "type": "address"
        },
        {
          "indexed": true,
          "internalType": "address",
          "name": "approved",
          "type": "address"
        },
        {
          "indexed": true,
          "internalType": "uint256",
          "name": "tokenId",
          "type": "uint256"
        }
      ],
      "name": "Approval",
      "type": "event"
    },
    {
      "anonymous": false,
      "inputs": [
        {
          "indexed": true,
          "internalType": "address",
          "name": "owner",
          "type": "address"
        },
        {
          "indexed": true,
          "internalType": "address",
          "name": "operator",
          "type": "address"
        },
        {
          "indexed": false,
          "internalType": "bool",
          "name": "approved",
          "type": "bool"
        }
      ],
      "name": "ApprovalForAll",
      "type": "event"
    },
    {
      "anonymous": false,
      "inputs": [
        {
          "indexed": true,
          "internalType": "address",
          "name": "previousOwner",
          "type": "address"
        },
        {
          "indexed": true,
          "internalType": "address",
          "name": "newOwner",
          "type": "address"
        }
      ],
      "name": "OwnershipTransferred",
      "type": "event"
    },
    {
      "anonymous": false,
      "inputs": [
        {
          "indexed": true,
          "internalType": "address",
          "name": "from",
          "type": "address"
        },
        {
          "indexed": true,
          "internalType": "address",
          "name": "to",
          "type": "address"
        },
        {
          "indexed": true,
          "internalType": "uint256",
          "name": "tokenId",
          "type": "uint256"
        }
      ],
      "name": "Transfer",
      "type": "event"
    },
    {
      "inputs": [
        {
          "internalType": "address",
          "name": "to",
          "type": "address"
        },
        {
          "internalType": "uint256",
          "name": "tokenId",
          "type": "uint256"
        }
      ],
      "name": "approve",
      "outputs": [],
      "stateMutability": "nonpayable",
      "type": "function"
    },
    {
      "inputs": [
        {
          "internalType": "address",
          "name": "owner",
          "type": "address"
        }
      ],
      "name": "balanceOf",
      "outputs": [
        {
          "internalType": "uint256",
          "name": "",
          "type": "uint256"
        }
      ],
      "stateMutability": "view",
      "type": "function",
      "constant": true
    },
    {
      "inputs": [
        {
          "internalType": "uint256",
          "name": "tokenId",
          "type": "uint256"
        }
      ],
      "name": "getApproved",
      "outputs": [
        {
          "internalType": "address",
          "name": "",
          "type": "address"
        }
      ],
      "stateMutability": "view",
      "type": "function",
      "constant": true
    },
    {
      "inputs": [
        {
          "internalType": "address",
          "name": "owner",
          "type": "address"
        },
        {
          "internalType": "address",
          "name": "operator",
          "type": "address"
        }
      ],
      "name": "isApprovedForAll",
      "outputs": [
        {
          "internalType": "bool",
          "name": "",
          "type": "bool"
        }
      ],
      "stateMutability": "view",
      "type": "function",
      "constant": true
    },
    {
      "inputs": [],
      "name": "name",
      "outputs": [
        {
          "internalType": "string",
          "name": "",
          "type": "string"
        }
      ],
      "stateMutability": "view",
      "type": "function",
      "constant": true
    },
    {
      "inputs": [],
      "name": "owner",
      "outputs": [
        {
          "internalType": "address",
          "name": "",
          "type": "address"
        }
      ],
      "stateMutability": "view",
      "type": "function",
      "constant": true
    },
    {
      "inputs": [
        {
          "internalType": "uint256",
          "name": "tokenId",
          "type": "uint256"
        }
      ],
      "name": "ownerOf",
      "outputs": [
        {
          "internalType": "address",
          "name": "",
          "type": "address"
        }
      ],
      "stateMutability": "view",
      "type": "function",
      "constant": true
    },
    {
      "inputs": [],
      "name": "renounceOwnership",
      "outputs": [],
      "stateMutability": "nonpayable",
      "type": "function"
    },
    {
      "inputs": [
        {
          "internalType": "address",
          "name": "from",
          "type": "address"
        },
        {
          "internalType": "address",
          "name": "to",
          "type": "address"
        },
        {
          "internalType": "uint256",
          "name": "tokenId",
          "type": "uint256"
        }
      ],
      "name": "safeTransferFrom",
      "outputs": [],
      "stateMutability": "nonpayable",
      "type": "function"
    },
    {
      "inputs": [
        {
          "internalType": "address",
          "name": "from",
          "type": "address"
        },
        {
          "internalType": "address",
          "name": "to",
          "type": "address"
        },
        {
          "internalType": "uint256",
          "name": "tokenId",
          "type": "uint256"
        },
        {
          "internalType": "bytes",
          "name": "data",
          "type": "bytes"
        }
      ],
      "name": "safeTransferFrom",
      "outputs": [],
      "stateMutability": "nonpayable",
      "type": "function"
    },
    {
      "inputs": [
        {
          "internalType": "address",
          "name": "operator",
          "type": "address"
        },
        {
          "internalType": "bool",
          "name": "approved",
          "type": "bool"
        }
      ],
      "name": "setApprovalForAll",
      "outputs": [],
      "stateMutability": "nonpayable",
      "type": "function"
    },
    {
      "inputs": [
        {
          "internalType": "bytes4",
          "name": "interfaceId",
          "type": "bytes4"
        }
      ],
      "name": "supportsInterface",
      "outputs": [
        {
          "internalType": "bool",
          "name": "",
          "type": "bool"
        }
      ],
      "stateMutability": "view",
      "type": "function",
      "constant": true
    },
    {
      "inputs": [],
      "name": "symbol",
      "outputs": [
        {
          "internalType": "string",
          "name": "",
          "type": "string"
        }
      ],
      "stateMutability": "view",
      "type": "function",
      "constant": true
    },
    {
      "inputs": [
        {
          "internalType": "uint256",
          "name": "tokenId",
          "type": "uint256"
        }
      ],
      "name": "tokenURI",
      "outputs": [
        {
          "internalType": "string",
          "name": "",
          "type": "string"
        }
      ],
      "stateMutability": "view",
      "type": "function",
      "constant": true
    },
    {
      "inputs": [
        {
          "internalType": "address",
          "name": "from",
          "type": "address"
        },
        {
          "internalType": "address",
          "name": "to",
          "type": "address"
        },
        {
          "internalType": "uint256",
          "name": "tokenId",
          "type": "uint256"
        }
      ],
      "name": "transferFrom",
      "outputs": [],
      "stateMutability": "nonpayable",
      "type": "function"
    },
    {
      "inputs": [
        {
          "internalType": "address",
          "name": "newOwner",
          "type": "address"
        }
      ],
      "name": "transferOwnership",
      "outputs": [],
      "stateMutability": "nonpayable",
      "type": "function"
    },
    {
      "inputs": [
        {
          "internalType": "string",
          "name": "tokenURI",
          "type": "string"
        }
      ],
      "name": "mintNFT",
      "outputs": [
        {
          "internalType": "uint256",
          "name": "",
          "type": "uint256"
        }
      ],
      "stateMutability": "nonpayable",
      "type": "function"
    }
  ],
  "bytecode": "0x60806040523480156200001157600080fd5b506040518060400160405280600681526020017f4d794e46547300000000000000000000000000000000000000000000000000008152506040518060400160405280600481526020017f4d4e46540000000000000000000000000000000000000000000000000000000081525081600090816200008f919062000412565b508060019081620000a1919062000412565b505050620000c4620000b8620000ca60201b60201c565b620000d260201b60201c565b620004f9565b600033905090565b6000600760009054906101000a900473ffffffffffffffffffffffffffffffffffffffff16905081600760006101000a81548173ffffffffffffffffffffffffffffffffffffffff021916908373ffffffffffffffffffffffffffffffffffffffff1602179055508173ffffffffffffffffffffffffffffffffffffffff168173ffffffffffffffffffffffffffffffffffffffff167f8be0079c531659141344cd1fd0a4f28419497f9722a3daafe3b4186f6b6457e060405160405180910390a35050565b600081519050919050565b7f4e487b7100000000000000000000000000000000000000000000000000000000600052604160045260246000fd5b7f4e487b7100000000000000000000000000000000000000000000000000000000600052602260045260246000fd5b600060028204905060018216806200021a57607f821691505b60208210810362000230576200022f620001d2565b5b50919050565b60008190508160005260206000209050919050565b60006020601f8301049050919050565b600082821b905092915050565b6000600883026200029a7fffffffffffffffffffffffffffffffffffffffffffffffffffffffffffffffff826200025b565b620002a686836200025b565b95508019841693508086168417925050509392505050565b6000819050919050565b6000819050919050565b6000620002f3620002ed620002e784620002be565b620002c8565b620002be565b9050919050565b6000819050919050565b6200030f83620002d2565b620003276200031e82620002fa565b84845462000268565b825550505050565b600090565b6200033e6200032f565b6200034b81848462000304565b505050565b5b8181101562000373576200036760008262000334565b60018101905062000351565b5050565b601f821115620003c2576200038c8162000236565b62000397846200024b565b81016020851015620003a7578190505b620003bf620003b6856200024b565b83018262000350565b50505b505050565b600082821c905092915050565b6000620003e760001984600802620003c7565b1980831691505092915050565b6000620004028383620003d4565b9150826002028217905092915050565b6200041d8262000198565b67ffffffffffffffff811115620004395762000438620001a3565b5b62000445825462000201565b6200045282828562000377565b600060209050601f8311600181146200048a576000841562000475578287015190505b620004818582620003f4565b865550620004f1565b601f1984166200049a8662000236565b60005b82811015620004c4578489015182556001820191506020850194506020810190506200049d565b86831015620004e45784890151620004e0601f891682620003d4565b8355505b6001600288020188555050505b505050505050565b612f5b80620005096000396000f3fe608060405234801561001057600080fd5b506004361061010b5760003560e01c8063715018a6116100a2578063b88d4fde11610071578063b88d4fde146102a4578063c87b56dd146102c0578063e985e9c5146102f0578063f2fde38b14610320578063fb37e8831461033c5761010b565b8063715018a6146102425780638da5cb5b1461024c57806395d89b411461026a578063a22cb465146102885761010b565b806323b872dd116100de57806323b872dd146101aa57806342842e0e146101c65780636352211e146101e257806370a08231146102125761010b565b806301ffc9a71461011057806306fdde0314610140578063081812fc1461015e578063095ea7b31461018e575b600080fd5b61012a60048036038101906101259190611cc8565b61036c565b6040516101379190611d10565b60405180910390f35b61014861044e565b6040516101559190611dbb565b60405180910390f35b61017860048036038101906101739190611e13565b6104e0565b6040516101859190611e81565b60405180910390f35b6101a860048036038101906101a39190611ec8565b610526565b005b6101c460048036038101906101bf9190611f08565b61063d565b005b6101e060048036038101906101db9190611f08565b61069d565b005b6101fc60048036038101906101f79190611e13565b6106bd565b6040516102099190611e81565b60405180910390f35b61022c60048036038101906102279190611f5b565b610743565b6040516102399190611f97565b60405180910390f35b61024a6107fa565b005b61025461080e565b6040516102619190611e81565b60405180910390f35b610272610838565b60405161027f9190611dbb565b60405180910390f35b6102a2600480360381019061029d9190611fde565b6108ca565b005b6102be60048036038101906102b99190612153565b6108e0565b005b6102da60048036038101906102d59190611e13565b610942565b6040516102e79190611dbb565b60405180910390f35b61030a600480360381019061030591906121d6565b610a54565b6040516103179190611d10565b60405180910390f35b61033a60048036038101906103359190611f5b565b610ae8565b005b610356600480360381019061035191906122b7565b610b6b565b6040516103639190611f97565b60405180910390f35b60007f80ac58cd000000000000000000000000000000000000000000000000000000007bffffffffffffffffffffffffffffffffffffffffffffffffffffffff1916827bffffffffffffffffffffffffffffffffffffffffffffffffffffffff1916148061043757507f5b5e139f000000000000000000000000000000000000000000000000000000007bffffffffffffffffffffffffffffffffffffffffffffffffffffffff1916827bffffffffffffffffffffffffffffffffffffffffffffffffffffffff1916145b80610447575061044682610baa565b5b9050919050565b60606000805461045d9061232f565b80601f01602080910402602001604051908101604052809291908181526020018280546104899061232f565b80156104d65780601f106104ab576101008083540402835291602001916104d6565b820191906000526020600020905b8154815290600101906020018083116104b957829003601f168201915b5050505050905090565b60006104eb82610c14565b6004600083815260200190815260200160002060009054906101000a900473ffffffffffffffffffffffffffffffffffffffff169050919050565b6000610531826106bd565b90508073ffffffffffffffffffffffffffffffffffffffff168373ffffffffffffffffffffffffffffffffffffffff16036105a1576040517f08c379a0000000000000000000000000000000000000000000000000000000008152600401610598906123d2565b60405180910390fd5b8073ffffffffffffffffffffffffffffffffffffffff166105c0610c5f565b73ffffffffffffffffffffffffffffffffffffffff1614806105ef57506105ee816105e9610c5f565b610a54565b5b61062e576040517f08c379a000000000000000000000000000000000000000000000000000000000815260040161062590612464565b60405180910390fd5b6106388383610c67565b505050565b61064e610648610c5f565b82610d20565b61068d576040517f08c379a0000000000000000000000000000000000000000000000000000000008152600401610684906124f6565b60405180910390fd5b610698838383610db5565b505050565b6106b8838383604051806020016040528060008152506108e0565b505050565b6000806106c9836110ae565b9050600073ffffffffffffffffffffffffffffffffffffffff168173ffffffffffffffffffffffffffffffffffffffff160361073a576040517f08c379a000000000000000000000000000000000000000000000000000000000815260040161073190612562565b60405180910390fd5b80915050919050565b60008073ffffffffffffffffffffffffffffffffffffffff168273ffffffffffffffffffffffffffffffffffffffff16036107b3576040517f08c379a00000000000000000000000000000000000000000000000000000000081526004016107aa906125f4565b60405180910390fd5b600360008373ffffffffffffffffffffffffffffffffffffffff1673ffffffffffffffffffffffffffffffffffffffff168152602001908152602001600020549050919050565b6108026110eb565b61080c6000611169565b565b6000600760009054906101000a900473ffffffffffffffffffffffffffffffffffffffff16905090565b6060600180546108479061232f565b80601f01602080910402602001604051908101604052809291908181526020018280546108739061232f565b80156108c05780601f10610895576101008083540402835291602001916108c0565b820191906000526020600020905b8154815290600101906020018083116108a357829003601f168201915b5050505050905090565b6108dc6108d5610c5f565b838361122f565b5050565b6108f16108eb610c5f565b83610d20565b610930576040517f08c379a0000000000000000000000000000000000000000000000000000000008152600401610927906124f6565b60405180910390fd5b61093c8484848461139b565b50505050565b606061094d82610c14565b600060066000848152602001908152602001600020805461096d9061232f565b80601f01602080910402602001604051908101604052809291908181526020018280546109999061232f565b80156109e65780601f106109bb576101008083540402835291602001916109e6565b820191906000526020600020905b8154815290600101906020018083116109c957829003601f168201915b5050505050905060006109f76113f7565b90506000815103610a0c578192505050610a4f565b600082511115610a41578082604051602001610a29929190612650565b60405160208183030381529060405292505050610a4f565b610a4a8461140e565b925050505b919050565b6000600560008473ffffffffffffffffffffffffffffffffffffffff1673ffffffffffffffffffffffffffffffffffffffff16815260200190815260200160002060008373ffffffffffffffffffffffffffffffffffffffff1673ffffffffffffffffffffffffffffffffffffffff16815260200190815260200160002060009054906101000a900460ff16905092915050565b610af06110eb565b600073ffffffffffffffffffffffffffffffffffffffff168173ffffffffffffffffffffffffffffffffffffffff1603610b5f576040517f08c379a0000000000000000000000000000000000000000000000000000000008152600401610b56906126e6565b60405180910390fd5b610b6881611169565b50565b6000610b756110eb565b610b7f6008611476565b6000610b8b600861148c565b9050610b97338261149a565b610ba181846116b7565b80915050919050565b60007f01ffc9a7000000000000000000000000000000000000000000000000000000007bffffffffffffffffffffffffffffffffffffffffffffffffffffffff1916827bffffffffffffffffffffffffffffffffffffffffffffffffffffffff1916149050919050565b610c1d81611724565b610c5c576040517f08c379a0000000000000000000000000000000000000000000000000000000008152600401610c5390612562565b60405180910390fd5b50565b600033905090565b816004600083815260200190815260200160002060006101000a81548173ffffffffffffffffffffffffffffffffffffffff021916908373ffffffffffffffffffffffffffffffffffffffff160217905550808273ffffffffffffffffffffffffffffffffffffffff16610cda836106bd565b73ffffffffffffffffffffffffffffffffffffffff167f8c5be1e5ebec7d5bd14f71427d1e84f3dd0314c0f7b2291e5b200ac8c7c3b92560405160405180910390a45050565b600080610d2c836106bd565b90508073ffffffffffffffffffffffffffffffffffffffff168473ffffffffffffffffffffffffffffffffffffffff161480610d6e5750610d6d8185610a54565b5b80610dac57508373ffffffffffffffffffffffffffffffffffffffff16610d94846104e0565b73ffffffffffffffffffffffffffffffffffffffff16145b91505092915050565b8273ffffffffffffffffffffffffffffffffffffffff16610dd5826106bd565b73ffffffffffffffffffffffffffffffffffffffff1614610e2b576040517f08c379a0000000000000000000000000000000000000000000000000000000008152600401610e2290612778565b60405180910390fd5b600073ffffffffffffffffffffffffffffffffffffffff168273ffffffffffffffffffffffffffffffffffffffff1603610e9a576040517f08c379a0000000000000000000000000000000000000000000000000000000008152600401610e919061280a565b60405180910390fd5b610ea78383836001611765565b8273ffffffffffffffffffffffffffffffffffffffff16610ec7826106bd565b73ffffffffffffffffffffffffffffffffffffffff1614610f1d576040517f08c379a0000000000000000000000000000000000000000000000000000000008152600401610f1490612778565b60405180910390fd5b6004600082815260200190815260200160002060006101000a81549073ffffffffffffffffffffffffffffffffffffffff02191690556001600360008573ffffffffffffffffffffffffffffffffffffffff1673ffffffffffffffffffffffffffffffffffffffff168152602001908152602001600020600082825403925050819055506001600360008473ffffffffffffffffffffffffffffffffffffffff1673ffffffffffffffffffffffffffffffffffffffff16815260200190815260200160002060008282540192505081905550816002600083815260200190815260200160002060006101000a81548173ffffffffffffffffffffffffffffffffffffffff021916908373ffffffffffffffffffffffffffffffffffffffff160217905550808273ffffffffffffffffffffffffffffffffffffffff168473ffffffffffffffffffffffffffffffffffffffff167fddf252ad1be2c89b69c2b068fc378daa952ba7f163c4a11628f55a4df523b3ef60405160405180910390a46110a9838383600161188b565b505050565b60006002600083815260200190815260200160002060009054906101000a900473ffffffffffffffffffffffffffffffffffffffff169050919050565b6110f3610c5f565b73ffffffffffffffffffffffffffffffffffffffff1661111161080e565b73ffffffffffffffffffffffffffffffffffffffff1614611167576040517f08c379a000000000000000000000000000000000000000000000000000000000815260040161115e90612876565b60405180910390fd5b565b6000600760009054906101000a900473ffffffffffffffffffffffffffffffffffffffff16905081600760006101000a81548173ffffffffffffffffffffffffffffffffffffffff021916908373ffffffffffffffffffffffffffffffffffffffff1602179055508173ffffffffffffffffffffffffffffffffffffffff168173ffffffffffffffffffffffffffffffffffffffff167f8be0079c531659141344cd1fd0a4f28419497f9722a3daafe3b4186f6b6457e060405160405180910390a35050565b8173ffffffffffffffffffffffffffffffffffffffff168373ffffffffffffffffffffffffffffffffffffffff160361129d576040517f08c379a0000000000000000000000000000000000000000000000000000000008152600401611294906128e2565b60405180910390fd5b80600560008573ffffffffffffffffffffffffffffffffffffffff1673ffffffffffffffffffffffffffffffffffffffff16815260200190815260200160002060008473ffffffffffffffffffffffffffffffffffffffff1673ffffffffffffffffffffffffffffffffffffffff16815260200190815260200160002060006101000a81548160ff0219169083151502179055508173ffffffffffffffffffffffffffffffffffffffff168373ffffffffffffffffffffffffffffffffffffffff167f17307eab39ab6107e8899845ad3d59bd9653f200f220920489ca2b5937696c318360405161138e9190611d10565b60405180910390a3505050565b6113a6848484610db5565b6113b284848484611891565b6113f1576040517f08c379a00000000000000000000000000000000000000000000000000000000081526004016113e890612974565b60405180910390fd5b50505050565b606060405180602001604052806000815250905090565b606061141982610c14565b60006114236113f7565b90506000815111611443576040518060200160405280600081525061146e565b8061144d84611a18565b60405160200161145e929190612650565b6040516020818303038152906040525b915050919050565b6001816000016000828254019250508190555050565b600081600001549050919050565b600073ffffffffffffffffffffffffffffffffffffffff168273ffffffffffffffffffffffffffffffffffffffff1603611509576040517f08c379a0000000000000000000000000000000000000000000000000000000008152600401611500906129e0565b60405180910390fd5b61151281611724565b15611552576040517f08c379a000000000000000000000000000000000000000000000000000000000815260040161154990612a4c565b60405180910390fd5b611560600083836001611765565b61156981611724565b156115a9576040517f08c379a00000000000000000000000000000000000000000000000000000000081526004016115a090612a4c565b60405180910390fd5b6001600360008473ffffffffffffffffffffffffffffffffffffffff1673ffffffffffffffffffffffffffffffffffffffff16815260200190815260200160002060008282540192505081905550816002600083815260200190815260200160002060006101000a81548173ffffffffffffffffffffffffffffffffffffffff021916908373ffffffffffffffffffffffffffffffffffffffff160217905550808273ffffffffffffffffffffffffffffffffffffffff16600073ffffffffffffffffffffffffffffffffffffffff167fddf252ad1be2c89b69c2b068fc378daa952ba7f163c4a11628f55a4df523b3ef60405160405180910390a46116b360008383600161188b565b5050565b6116c082611724565b6116ff576040517f08c379a00000000000000000000000000000000000000000000000000000000081526004016116f690612ade565b60405180910390fd5b8060066000848152602001908152602001600020908161171f9190612caa565b505050565b60008073ffffffffffffffffffffffffffffffffffffffff16611746836110ae565b73ffffffffffffffffffffffffffffffffffffffff1614159050919050565b600181111561188557600073ffffffffffffffffffffffffffffffffffffffff168473ffffffffffffffffffffffffffffffffffffffff16146117f95780600360008673ffffffffffffffffffffffffffffffffffffffff1673ffffffffffffffffffffffffffffffffffffffff16815260200190815260200160002060008282546117f19190612dab565b925050819055505b600073ffffffffffffffffffffffffffffffffffffffff168373ffffffffffffffffffffffffffffffffffffffff16146118845780600360008573ffffffffffffffffffffffffffffffffffffffff1673ffffffffffffffffffffffffffffffffffffffff168152602001908152602001600020600082825461187c9190612ddf565b925050819055505b5b50505050565b50505050565b60006118b28473ffffffffffffffffffffffffffffffffffffffff16611ae6565b15611a0b578373ffffffffffffffffffffffffffffffffffffffff1663150b7a026118db610c5f565b8786866040518563ffffffff1660e01b81526004016118fd9493929190612e68565b6020604051808303816000875af192505050801561193957506040513d601f19601f820116820180604052508101906119369190612ec9565b60015b6119bb573d8060008114611969576040519150601f19603f3d011682016040523d82523d6000602084013e61196e565b606091505b5060008151036119b3576040517f08c379a00000000000000000000000000000000000000000000000000000000081526004016119aa90612974565b60405180910390fd5b805181602001fd5b63150b7a0260e01b7bffffffffffffffffffffffffffffffffffffffffffffffffffffffff1916817bffffffffffffffffffffffffffffffffffffffffffffffffffffffff191614915050611a10565b600190505b949350505050565b606060006001611a2784611b09565b01905060008167ffffffffffffffff811115611a4657611a45612028565b5b6040519080825280601f01601f191660200182016040528015611a785781602001600182028036833780820191505090505b509050600082602001820190505b600115611adb578080600190039150507f3031323334353637383961626364656600000000000000000000000000000000600a86061a8153600a8581611acf57611ace612ef6565b5b04945060008503611a86575b819350505050919050565b6000808273ffffffffffffffffffffffffffffffffffffffff163b119050919050565b600080600090507a184f03e93ff9f4daa797ed6e38ed64bf6a1f0100000000000000008310611b67577a184f03e93ff9f4daa797ed6e38ed64bf6a1f0100000000000000008381611b5d57611b5c612ef6565b5b0492506040810190505b6d04ee2d6d415b85acef81000000008310611ba4576d04ee2d6d415b85acef81000000008381611b9a57611b99612ef6565b5b0492506020810190505b662386f26fc100008310611bd357662386f26fc100008381611bc957611bc8612ef6565b5b0492506010810190505b6305f5e1008310611bfc576305f5e1008381611bf257611bf1612ef6565b5b0492506008810190505b6127108310611c21576127108381611c1757611c16612ef6565b5b0492506004810190505b60648310611c445760648381611c3a57611c39612ef6565b5b0492506002810190505b600a8310611c53576001810190505b80915050919050565b6000604051905090565b600080fd5b600080fd5b60007fffffffff0000000000000000000000000000000000000000000000000000000082169050919050565b611ca581611c70565b8114611cb057600080fd5b50565b600081359050611cc281611c9c565b92915050565b600060208284031215611cde57611cdd611c66565b5b6000611cec84828501611cb3565b91505092915050565b60008115159050919050565b611d0a81611cf5565b82525050565b6000602082019050611d256000830184611d01565b92915050565b600081519050919050565b600082825260208201905092915050565b60005b83811015611d65578082015181840152602081019050611d4a565b60008484015250505050565b6000601f19601f8301169050919050565b6000611d8d82611d2b565b611d978185611d36565b9350611da7818560208601611d47565b611db081611d71565b840191505092915050565b60006020820190508181036000830152611dd58184611d82565b905092915050565b6000819050919050565b611df081611ddd565b8114611dfb57600080fd5b50565b600081359050611e0d81611de7565b92915050565b600060208284031215611e2957611e28611c66565b5b6000611e3784828501611dfe565b91505092915050565b600073ffffffffffffffffffffffffffffffffffffffff82169050919050565b6000611e6b82611e40565b9050919050565b611e7b81611e60565b82525050565b6000602082019050611e966000830184611e72565b92915050565b611ea581611e60565b8114611eb057600080fd5b50565b600081359050611ec281611e9c565b92915050565b60008060408385031215611edf57611ede611c66565b5b6000611eed85828601611eb3565b9250506020611efe85828601611dfe565b9150509250929050565b600080600060608486031215611f2157611f20611c66565b5b6000611f2f86828701611eb3565b9350506020611f4086828701611eb3565b9250506040611f5186828701611dfe565b9150509250925092565b600060208284031215611f7157611f70611c66565b5b6000611f7f84828501611eb3565b91505092915050565b611f9181611ddd565b82525050565b6000602082019050611fac6000830184611f88565b92915050565b611fbb81611cf5565b8114611fc657600080fd5b50565b600081359050611fd881611fb2565b92915050565b60008060408385031215611ff557611ff4611c66565b5b600061200385828601611eb3565b925050602061201485828601611fc9565b9150509250929050565b600080fd5b600080fd5b7f4e487b7100000000000000000000000000000000000000000000000000000000600052604160045260246000fd5b61206082611d71565b810181811067ffffffffffffffff8211171561207f5761207e612028565b5b80604052505050565b6000612092611c5c565b905061209e8282612057565b919050565b600067ffffffffffffffff8211156120be576120bd612028565b5b6120c782611d71565b9050602081019050919050565b82818337600083830152505050565b60006120f66120f1846120a3565b612088565b90508281526020810184848401111561211257612111612023565b5b61211d8482856120d4565b509392505050565b600082601f83011261213a5761213961201e565b5b813561214a8482602086016120e3565b91505092915050565b6000806000806080858703121561216d5761216c611c66565b5b600061217b87828801611eb3565b945050602061218c87828801611eb3565b935050604061219d87828801611dfe565b925050606085013567ffffffffffffffff8111156121be576121bd611c6b565b5b6121ca87828801612125565b91505092959194509250565b600080604083850312156121ed576121ec611c66565b5b60006121fb85828601611eb3565b925050602061220c85828601611eb3565b9150509250929050565b600067ffffffffffffffff82111561223157612230612028565b5b61223a82611d71565b9050602081019050919050565b600061225a61225584612216565b612088565b90508281526020810184848401111561227657612275612023565b5b6122818482856120d4565b509392505050565b600082601f83011261229e5761229d61201e565b5b81356122ae848260208601612247565b91505092915050565b6000602082840312156122cd576122cc611c66565b5b600082013567ffffffffffffffff8111156122eb576122ea611c6b565b5b6122f784828501612289565b91505092915050565b7f4e487b7100000000000000000000000000000000000000000000000000000000600052602260045260246000fd5b6000600282049050600182168061234757607f821691505b60208210810361235a57612359612300565b5b50919050565b7f4552433732313a20617070726f76616c20746f2063757272656e74206f776e6560008201527f7200000000000000000000000000000000000000000000000000000000000000602082015250565b60006123bc602183611d36565b91506123c782612360565b604082019050919050565b600060208201905081810360008301526123eb816123af565b9050919050565b7f4552433732313a20617070726f76652063616c6c6572206973206e6f7420746f60008201527f6b656e206f776e6572206f7220617070726f76656420666f7220616c6c000000602082015250565b600061244e603d83611d36565b9150612459826123f2565b604082019050919050565b6000602082019050818103600083015261247d81612441565b9050919050565b7f4552433732313a2063616c6c6572206973206e6f7420746f6b656e206f776e6560008201527f72206f7220617070726f76656400000000000000000000000000000000000000602082015250565b60006124e0602d83611d36565b91506124eb82612484565b604082019050919050565b6000602082019050818103600083015261250f816124d3565b9050919050565b7f4552433732313a20696e76616c696420746f6b656e2049440000000000000000600082015250565b600061254c601883611d36565b915061255782612516565b602082019050919050565b6000602082019050818103600083015261257b8161253f565b9050919050565b7f4552433732313a2061646472657373207a65726f206973206e6f74206120766160008201527f6c6964206f776e65720000000000000000000000000000000000000000000000602082015250565b60006125de602983611d36565b91506125e982612582565b604082019050919050565b6000602082019050818103600083015261260d816125d1565b9050919050565b600081905092915050565b600061262a82611d2b565b6126348185612614565b9350612644818560208601611d47565b80840191505092915050565b600061265c828561261f565b9150612668828461261f565b91508190509392505050565b7f4f776e61626c653a206e6577206f776e657220697320746865207a65726f206160008201527f6464726573730000000000000000000000000000000000000000000000000000602082015250565b60006126d0602683611d36565b91506126db82612674565b604082019050919050565b600060208201905081810360008301526126ff816126c3565b9050919050565b7f4552433732313a207472616e736665722066726f6d20696e636f72726563742060008201527f6f776e6572000000000000000000000000000000000000000000000000000000602082015250565b6000612762602583611d36565b915061276d82612706565b604082019050919050565b6000602082019050818103600083015261279181612755565b9050919050565b7f4552433732313a207472616e7366657220746f20746865207a65726f2061646460008201527f7265737300000000000000000000000000000000000000000000000000000000602082015250565b60006127f4602483611d36565b91506127ff82612798565b604082019050919050565b60006020820190508181036000830152612823816127e7565b9050919050565b7f4f776e61626c653a2063616c6c6572206973206e6f7420746865206f776e6572600082015250565b6000612860602083611d36565b915061286b8261282a565b602082019050919050565b6000602082019050818103600083015261288f81612853565b9050919050565b7f4552433732313a20617070726f766520746f2063616c6c657200000000000000600082015250565b60006128cc601983611d36565b91506128d782612896565b602082019050919050565b600060208201905081810360008301526128fb816128bf565b9050919050565b7f4552433732313a207472616e7366657220746f206e6f6e20455243373231526560008201527f63656976657220696d706c656d656e7465720000000000000000000000000000602082015250565b600061295e603283611d36565b915061296982612902565b604082019050919050565b6000602082019050818103600083015261298d81612951565b9050919050565b7f4552433732313a206d696e7420746f20746865207a65726f2061646472657373600082015250565b60006129ca602083611d36565b91506129d582612994565b602082019050919050565b600060208201905081810360008301526129f9816129bd565b9050919050565b7f4552433732313a20746f6b656e20616c7265616479206d696e74656400000000600082015250565b6000612a36601c83611d36565b9150612a4182612a00565b602082019050919050565b60006020820190508181036000830152612a6581612a29565b9050919050565b7f45524337323155524953746f726167653a2055524920736574206f66206e6f6e60008201527f6578697374656e7420746f6b656e000000000000000000000000000000000000602082015250565b6000612ac8602e83611d36565b9150612ad382612a6c565b604082019050919050565b60006020820190508181036000830152612af781612abb565b9050919050565b60008190508160005260206000209050919050565b60006020601f8301049050919050565b600082821b905092915050565b600060088302612b607fffffffffffffffffffffffffffffffffffffffffffffffffffffffffffffffff82612b23565b612b6a8683612b23565b95508019841693508086168417925050509392505050565b6000819050919050565b6000612ba7612ba2612b9d84611ddd565b612b82565b611ddd565b9050919050565b6000819050919050565b612bc183612b8c565b612bd5612bcd82612bae565b848454612b30565b825550505050565b600090565b612bea612bdd565b612bf5818484612bb8565b505050565b5b81811015612c1957612c0e600082612be2565b600181019050612bfb565b5050565b601f821115612c5e57612c2f81612afe565b612c3884612b13565b81016020851015612c47578190505b612c5b612c5385612b13565b830182612bfa565b50505b505050565b600082821c905092915050565b6000612c8160001984600802612c63565b1980831691505092915050565b6000612c9a8383612c70565b9150826002028217905092915050565b612cb382611d2b565b67ffffffffffffffff811115612ccc57612ccb612028565b5b612cd6825461232f565b612ce1828285612c1d565b600060209050601f831160018114612d145760008415612d02578287015190505b612d0c8582612c8e565b865550612d74565b601f198416612d2286612afe565b60005b82811015612d4a57848901518255600182019150602085019450602081019050612d25565b86831015612d675784890151612d63601f891682612c70565b8355505b6001600288020188555050505b505050505050565b7f4e487b7100000000000000000000000000000000000000000000000000000000600052601160045260246000fd5b6000612db682611ddd565b9150612dc183611ddd565b9250828203905081811115612dd957612dd8612d7c565b5b92915050565b6000612dea82611ddd565b9150612df583611ddd565b9250828201905080821115612e0d57612e0c612d7c565b5b92915050565b600081519050919050565b600082825260208201905092915050565b6000612e3a82612e13565b612e448185612e1e565b9350612e54818560208601611d47565b612e5d81611d71565b840191505092915050565b6000608082019050612e7d6000830187611e72565b612e8a6020830186611e72565b612e976040830185611f88565b8181036060830152612ea98184612e2f565b905095945050505050565b600081519050612ec381611c9c565b92915050565b600060208284031215612edf57612ede611c66565b5b6000612eed84828501612eb4565b91505092915050565b7f4e487b7100000000000000000000000000000000000000000000000000000000600052601260045260246000fdfea264697066735822122084d7384225ba356da77227b53ee7163eab430978ad11a0c4b5b38ac5d7f9893464736f6c63430008110033",
  "immutableReferences": {},
  "source": "//Contract based on [<https://docs.openzeppelin.com/contracts/3.x/erc721>](<https://docs.openzeppelin.com/contracts/3.x/erc721>)\n// SPDX-License-Identifier: MIT\npragma solidity ^0.8.7;\n\nimport \"@openzeppelin/contracts/token/ERC721/ERC721.sol\";\nimport \"@openzeppelin/contracts/utils/Counters.sol\";\nimport \"@openzeppelin/contracts/access/Ownable.sol\";\nimport \"@openzeppelin/contracts/token/ERC721/extensions/ERC721URIStorage.sol\";\n\ncontract MyNFTs is ERC721URIStorage, Ownable {\n    using Counters for Counters.Counter;\n    Counters.Counter private _tokenIds;\n\n    constructor() ERC721(\"MyNFTs\", \"MNFT\") {}\n\n    function mintNFT(string memory tokenURI)\n        public onlyOwner\n        returns (uint256)\n    {\n        _tokenIds.increment();\n\n        uint256 newItemId = _tokenIds.current();\n        _mint(msg.sender, newItemId);\n        _setTokenURI(newItemId, tokenURI);\n\n        return newItemId;\n    }\n}",
  "sourcePath": "/Users/hyuntae/Desktop/blockchain/erc721/contracts/MyNFTs.sol",
  "compiler": {
    "name": "solc",
    "version": "0.8.17+commit.8df45f5f.Emscripten.clang"
  },
  "schemaVersion": "3.4.11",
  "updatedAt": "2022-12-08T08:37:40.715Z",
  "networkType": "ethereum",
  "devdoc": {
    "kind": "dev",
    "methods": {
      "approve(address,uint256)": {
        "details": "See {IERC721-approve}."
      },
      "balanceOf(address)": {
        "details": "See {IERC721-balanceOf}."
      },
      "getApproved(uint256)": {
        "details": "See {IERC721-getApproved}."
      },
      "isApprovedForAll(address,address)": {
        "details": "See {IERC721-isApprovedForAll}."
      },
      "name()": {
        "details": "See {IERC721Metadata-name}."
      },
      "owner()": {
        "details": "Returns the address of the current owner."
      },
      "ownerOf(uint256)": {
        "details": "See {IERC721-ownerOf}."
      },
      "renounceOwnership()": {
        "details": "Leaves the contract without owner. It will not be possible to call `onlyOwner` functions anymore. Can only be called by the current owner. NOTE: Renouncing ownership will leave the contract without an owner, thereby removing any functionality that is only available to the owner."
      },
      "safeTransferFrom(address,address,uint256)": {
        "details": "See {IERC721-safeTransferFrom}."
      },
      "safeTransferFrom(address,address,uint256,bytes)": {
        "details": "See {IERC721-safeTransferFrom}."
      },
      "setApprovalForAll(address,bool)": {
        "details": "See {IERC721-setApprovalForAll}."
      },
      "supportsInterface(bytes4)": {
        "details": "See {IERC165-supportsInterface}."
      },
      "symbol()": {
        "details": "See {IERC721Metadata-symbol}."
      },
      "tokenURI(uint256)": {
        "details": "See {IERC721Metadata-tokenURI}."
      },
      "transferFrom(address,address,uint256)": {
        "details": "See {IERC721-transferFrom}."
      },
      "transferOwnership(address)": {
        "details": "Transfers ownership of the contract to a new account (`newOwner`). Can only be called by the current owner."
      }
    },
    "version": 1
  },
  "userdoc": {
    "kind": "user",
    "methods": {},
    "version": 1
  }
}